:10000000E0A3FEE0FFEF8DF0A4CFC5F0CCA42CFC64
:09001000EE60038DF0A42CFE2229
:10001900E58124FBF9EC6480FCE76480F78005E561
:100029008124FBF9E5D054184404F87A04E687F0F2
:10003900B5F00A0908DAF6E4FEFF020050E45004BC
:07004900FE0480F5F480F1D4
:0F00500074FCD083D0822581F581C082C08322C9
:10005F008E028F03758901758CDC758A00D28CE452
:04006F00F514F5157A
:10007300E4F516F5178A048B05E4FE7F6412000588
:100083008EF0B2F7E5166480B5F006E517B5070103
:03009300D3501532
:10009600308DFD758CDC758A00C28D0517E51770ED
:0D00A600D1051680CD0515E515B401C12268
:0100B300222A
:0100B4002229
:0E00B500758901758CDC758A00D28CE4FAFB2B
:0F00C300E4FCFDEC6480B48004BD0501D3501251
:1000D200308DFD758CDC758A00C28D0DED70E50CDE
:0700E20080E20BBB01DB22F1
:1000E900D2A01200B5C2A0E4F508F509F50AF50B8E
:0300F90020A7023B
:1000FC0080FB30A72AC008C009C00AC00BE4FCFD75
:09010C00FE7FC8120019BFFF16A6
:10011500050BE50B70E3050AE50A70DD0509E50940
:0701250070D7050880D3220A
:10012C00D2A01200B5C2A0E4F510F511F512F5132A
:03013C0020A302FB
:10013F0080FB30A32AC010C011C012C013E4FCFD15
:09014F00FE7FC8120019BFFF1663
:100158000513E51370E30512E51270DD0511E511CD
:0701680070D7051080D322BF
:10016F00D2A01200B5C2A0E4F50CF50DF50EF50FF7
:03017F0020A202B9
:1001820080FB30A22AC00CC00DC00EC00FE4FCFDE3
:09019200FE7FC8120019BFFF1620
:10019B00050FE50F70E3050EE50E70DD050DE50DA2
:0701AB0070D7050C80D32280
:0701B200EF4E24FF929122A1
:0701B900EF4E24FF92922299
:0701C000EF4E24FF92902294
:0301C700EF6005E1
:0501CA00D2B3D2B52202
:0501CF00C2B3C2B5221D
:0901D400BE000BEF14600280056F
:0A01DD00C2B3D2B422D2B3C2B422DE
:0901E700BE000BEF14600280055C
:0A01F000C2B6D2B722D2B6C2B722BF
:0C01FA008F05EF24BA600524F2600C228F
:10020600E4FE7F011201E71201D422E4FEFF12018F
:05021600E71201D422F3
:0B021B008F05EF24BC600F146001226F
:10022600E4FEFF1201E70F1201D422E4FE7F011261
:0802360001E7E4FF1201D422EC
:00000001FF
