:03000000020049B2
:10000300E58124FBF9EC6480FCE76480F78005E577
:100013008124FBF9E5D054184404F87A04E687F008
:10002300B5F00A0908DAF6E4FEFF02003AE45004E8
:07003300FE0480F5F480F1EA
:0F003A0074FCD083D0822581F581C082C08322DF
:1000490075811BE4787FF6D8FD75A000751AFF024B
:0200590001DEC6
:10005B00EE4F7004E4FE7F05758901758CDC758AA3
:06006B0000D28CE4FAFB58
:0F007100E4FEFFEE6480B48004BF0501D350129B
:10008000308DFD758CDC758A00C28D0FEF70E50E2A
:0700900080E20BBB01DB2243
:10009700D2A0E4FEFF12005BC2A0E4F508F509F563
:0600A7000AF50B20A10484
:0900AD00C29080F9D29030A11636
:1000B600050BE50B70F7050AE50A70F10509E50978
:0700C60070EB050880E72242
:1000CD00D2A0E4FEFF12005BC2A0E4F510F511F51D
:0600DD0012F51320A3043C
:0900E300C29180F9D29130A316FC
:1000EC000513E51370F70512E51270F10511E51112
:0700FC0070EB051080E72204
:10010300D2A0E4FEFF12005BC2A0E4F50CF50DF5EE
:060113000EF50F20A2040E
:09011900C29280F9D29230A216C4
:10012200050FE50F70F7050EE50E70F1050DE50DF3
:0701320070EB050C80E722D1
:07013900EF4E24FF9291221A
:07014000EF4E24FF92922212
:07014700EF4E24FF9290220D
:03014E00EF60055A
:05015100D2B3D2B5227B
:05015600C2B3C2B52296
:09015B00C2B3C2B4C2B6C2B7229D
:09016400BE000BEF1460028005DF
:0A016D00C2B3D2B422D2B3C2B4224E
:09017700BE000BEF1460028005CC
:0A018000D2B6C2B722C2B6D2B7222F
:10018A008F05EF24BA600924F6601A24FC600C2259
:10019A00E4FE7F0112017712016422E4FEFF1201DC
:0901AA00771201642212015B22AC
:0B01B3008F05EF24BC601414600122D3
:1001BE00E4FEFF1201770F120164E4FF12005B22CE
:1001CE00E4FE7F01120177E4FF12016412005B224C
:1001DE00E4FE7F011201471201391201401201F0B3
:0201EE0080FB94
:1001F000120103C00CC00DC00EC00FE4FEFCFD7F59
:0702000064120003BF016955
:10020700E4F518F5191200971200CDC008C009C00F
:0F0217000AC00BE4FEFCFD7F64120003BFFF185A
:100226007F441201B3E4FE7F0A12005B7F4612018F
:100236008AE4FE7F0A12005BC010C011C012C01310
:0C024600E4FCFDFE7F64120003BFFF1803
:100252007F451201B3E4FE7F0A12005B7F46120162
:0E0262008AE4FE7F0A12005B7F4612018A22A8
:100270000519E519700205187F5412018AE5186402
:1002800080B48005E519B405005009E4FE7F0F1223
:04029000005B804D42
:10029400E4FE7F1E12005BC008C009C00AC00BAC9C
:1002A40010AD11AE12AF13120003BF01077F451248
:1002B40001B38022C008C009C00AC00BAC10AD1144
:1002C400AE12AF13120012BF00077F4612018A80DC
:1002D400057F441201B3E4FE7F0A12005B7F5012D3
:0602E400018A1202EA2269
:1002EA001200971200CDC008C009C00AC00BE4FC76
:1002FA00FD7E017FF4120003BF0157C010C011C078
:10030A0012C013E4FCFD7E017FF4120003BF014218
:10031A00C008C009C00AC00BAC10AD11AE12AF13B1
:10032A00120003BF01077F451201B380057F441203
:10033A0001B3E4FE7F1412005B7F5012018AE4FECF
:10034A007F0512005B7F4612018AE4FE7F141200C9
:10035A005B22C008C009C00AC00BE4FCFD7E017F15
:07036A00F4120003BF010DB6
:100371007F451201B3E4FE7F0A12005B22C010C068
:1003810011C012C013E4FCFD7E017FF4120003BF13
:02039100010C5D
:0D0393007F441201B3E4FE7F0A12005B22DA
:00000001FF
